:10207400AF83E582900400F0EFA3F0900400E0FE4B
:10208400A3E0FF7C007D00C3EC9EED64808FF063D1
:10209400F08095F0501D7A007B00C3EA9452EB6403
:1020A40080948050070ABA00F10B80EE0CBC00D774
:1020B4000D80D422C290D292908000E020E7F922D1
:1020C40090003C122074C290C2929080007430F050
:1020D40090000F1220749080007430F09000011270
:1020E40020749080007430F01220B8C290C2929094
:1020F40080007438F01220B8C290C29290800074AC
:1021040008F01220B8C290C292908000740FF012AE
:1021140020B8C290C2929080007406F01220B8C217
:1021240090C2929080007401F00220B8E58290047D
:1021340002F0C290C292900402E043E080F0900466
:1021440002E0908000F00220B8AF83E5829004059D
:10215400F0EFA3F0900407E4F0A3F0900405E0FE90
:10216400A3E0FF4E7019900405E4F0A3F09004037B
:10217400E0FCA3E0FD900407ECF0EDA3F08067BE63
:102184000120BF001D9004057440F0E4A3F0900406
:1021940003E0FCA3E0FD90040774404CF0EDA3F0D1
:1021A4008044BE0220BF001D9004057410F0E4A317
:1021B400F0900403E0FCA3E0FD90040774104CF0DD
:1021C400EDA3F08021BE031EBF001B9004057450D4
:1021D400F0E4A3F0900403E0FEA3E0FF900407748E
:1021E400504EF0EFA3F0900407E0FEA3E08E8212BD
:1021F40021300220B8C290D292908000E0547FF542
:102204008222E582900409F0E0FFBF7F0122C0072B
:102214001221F9AE82D007BE0F19D290C2929080DB
:1022240000EFF01220B8900403E4F0A3F090000152
:1022340002214DC0071221F9AE82D007BE4F19D238
:1022440090C292908000EFF01220B8900403E4F062
:10225400A3F090000202214DC0071221F9AE82D0F2
:1022640007BE1F19D290C292908000EFF01220B8DE
:10227400900403E4F0A3F090000302214DC0071280
:1022840021F9AE82D007BE5819D290C29290800034
:10229400EFF01220B8900403E4F0A3F090000002E1
:1022A400214DD290C292908000EFF00220B8AFF09E
:1022B400AE83E58290040AF0EEA3F0EFA3F090045D
:1022C4000AE0FDA3E0FEA3E0FF7B007C00EB2DF819
:1022D400EC3EF98F02888289838AF0123AEAFA6026
:1022E400208A82C007C006C005C004C003122206AB
:1022F400D003D004D005D006D0070BBB00CF0C8090
:10230400CC22C290C2929080007401F01220B87561
:10231400820002213075820012213090040DE4F015
:10232400A3F07E007F00C3EE9450EF64809480405D
:10233400030223AD90040DE0FCA3E0FDBC1027BD17
:10234400002490040DE4F0A3F0C007C0067406C096
:10235400E0743BC0E07480C0E01230C81581158180
:102364001581D006D00790040DE02401F0A3E034D9
:1023740000F0D290D292908000E0FD53057F7C0063
:10238400C007C006C005C0047409C0E0743BC0E0C7
:102394007480C0E01230C8E58124FBF581D006D0FA
:1023A400070EBE00010F02232A7406C0E0743BC06E
:1023B400E07480C0E01230C815811581158122E5D2
:1023C40082900412F0E07E0024D0FFEE34FFC403B8
:1023D40054F8CFC403CF6FCF54F8CF6FFE430740F8
:1023E40090040FE0FBA3E0FCA3E0FD79007A00C3B6
:1023F400E99408EA648094805071C290C29289087A
:102404008F00908000E50848F0C007C006C005C0F2
:1024140004C003C002C0011220B8D001D002D0030E
:10242400D004D005D290E929F8EA33FFE82BF8EF7D
:102434003CFF8D0688828F838EF0123AEA908000EA
:10244400F0C007C006C005C004C003C002C001122A
:1024540020B8D001D002D003D004D005D006D007D4
:1024640009B900010AD006D0078084D290C29290A4
:1024740080007440F09004037401F0E4A3F0900031
:102484000212214DD290900412E024D0908000F0EA
:102494000220B8AFF0AE83E582900413F0EEA3F00F
:1024A400EFA3F0900416E4F0A3F0900418F0A3F066
:1024B400900413E0FDA3E0FEA3E0FF8D028E038FE2
:1024C40004C002C003C004900416E0F8A3E0F9E8D5
:1024D4002DFAE93EFB8F048A828B838CF0123AEA50
:1024E400F509740DB50909D004D003D0020225D230
:1024F400D004D003D00274BF25095052E50924A5A5
:10250400404CC002C003C004E50924C9FC9004186F
:10251400E0FAA3E08A0AC454F0C50AC4C50A650AED
:10252400C50A54F0C50A650AF50B8C037C009004B7
:1025340018EB250AF0EC350BA3F09004167401286F
:10254400F0E439A3F0D004D003D0020224C5C005BE
:10255400C006C007900416E0F8A3E0F9E82AFDE9F4
:102564003BFE8C078D828E838FF0123AEA24D0FDD5
:10257400900418E0FEA3E0FF90043CEEF0EFA3F01B
:1025840090000AC007C006C005C004C003C002C052
:1025940001C00012305A85820A85830BD000D00115
:1025A400D002D003D004D005D006D0077F00900419
:1025B40018ED250AF0EF350BA3F0900416740128EA
:1025C400F0E439A3F0D007D006D0050224C5900466
:1025D40018E0FEA3E08E82F58322AFF0AE83E5829D
:1025E40090041AF0EEA3F0EFA3F090041AE0FDA318
:1025F400E0FEA3E0FF7B007C00EB2DF8EC3EF98FBE
:1026040002C005C006C007C005C004C003C002C0A4
:1026140001C000122F28AE82D000D001D002D00316
:10262400D004D005888289838AF0EE122F36BE0D3D
:1026340007D007D006D00522D007D006D00588825F
:1026440089838AF0123AEAF87A0088828A83C0077A
:10265400C006C005C004C003122F097406C0E0748C
:102664003BC0E07480C0E01230C81581158115812B
:10267400D003D004D005D006D0070BBB00010C0258
:1026840025FD227F00BF08004001228F057E00C087
:1026940007C006C005C005C006740DC0E0743BC089
:1026A400E0122F51E58124FCF581D005D006D00736
:1026B400EEC40354F8CDC403CD6DCD54F8CD6DFEF6
:1026C4004305407B007C00C3EB9408EC6480948059
:1026D4005053C290C2928B028D01908000EA49F05F
:1026E400C007C006C005C004C0031220B8D290D2EF
:1026F40092908000E0F953013F7A00C001C0027457
:1027040014C0E0743BC0E07480C0E01230C8E581BE
:1027140024FBF581D003D004D005D006D0070BBB31
:1027240000A50C80A2C0077406C0E0743BC0E01290
:0C2734002F5115811581D0070F02268956
:103B06000A0D0025580900305825643A200025582A
:023B160020008D
:042000000220113277
:03200B0002275752
:0A206A0090041EE4F0A3F002200E23
:03200E000228970E
:10274000438E0C90000022438901758A00758C002D
:10275000D2AFD2A9D28C22C020C0E0C0F0C082C0CB
:1027600083C007C006C005C004C003C002C001C0CA
:1027700000C0D075D0001221F9E58290041DF07ED2
:10278000987F088E048F051EBEFF011FEC4D70F36D
:1027900090041EE02401F0A3E03400F090041EE059
:1027A000FEA3E0FFBE0105BF00028003022869907E
:1027B000041EE4F0A3F0900477E004F0E0FFBF0A09
:1027C0003B900477E4F0900478E004F0E0FFBF0A67
:1027D0002B900478E4F0900479E004F0E0FFBF0669
:1027E0001B900479E4F090047AE004F0E0FFBF0A63
:1027F0000B90047AE4F090047BE004F075825912A7
:10280000213090047BE02430F58212220675825A32
:1028100012213090047AE02430F58212220675826B
:102820005B12213075823A12220675825C122130C9
:10283000900479E02430F58212220675825D12211F
:1028400030900478E02430F58212220675825E1200
:10285000213075822E12220675825F12213090047B
:1028600077E02430F58212220690041DE0F58212F2
:102870002130758A00758C00C28DD0D0D000D00177
:10288000D002D003D004D005D006D007D083D082A8
:10289000D0F0D0E0D020321220C4D2AF7F0110AFF0
:1028A000027F00900477E4F0900478F0900479F0CF
:1028B00090047AF090047BF0EF1392AF1227471246
:1028C00020C4758200122130903B1875F0801222CE
:1028D000B2743BC0E0743BC0E0122F5115811581EA
:1028E0007457C0E0743BC0E0122F5115811581125E
:1028F0002F28AE828E057F00C006C005C007746D0C
:10290000C0E0743BC0E0122F51E58124FCF581D07A
:1029100006BE4203022C15BE4303022B2CBE440309
:10292000022DDBBE4503022CBEBE4603022DE1BED6
:102930004703022CCABE48028021BE4903022F036E
:10294000BE4A03022A30BE5203022CC4BE53030205
:102950002B74BE5A03022C2A0228D17F0110AF0229
:102960007F00C0077472C0E0743BC0E0122F5115A5
:102970008115817498C0E0743BC0E0122F5115811D
:10298000158174C1C0E0743BC0E0122F5115811550
:102990008174EFC0E0743BC0E0122F5115811581A6
:1029A000741AC0E0743CC0E0122F51158115817477
:1029B00033C0E0743CC0E0122F5115811581745E64
:1029C000C0E0743CC0E0122F5115811581747FC0A6
:1029D000E0743CC0E0122F511581158174B0C0E045
:1029E000743CC0E0122F511581158174E4C0E0746D
:1029F0003CC0E0122F5115811581740EC0E0743D6A
:102A0000C0E0122F51158115817430C0E0743DC0B3
:102A1000E0122F51158115817452C0E0743DC0E061
:102A2000122F5115811581D007EF1392AF0228D1D3
:102A30007489C0E0743DC0E0122F511581158112D8
:102A40002F28AE82AF83C007C006122F097497C02B
:102A5000E0743DC0E0122F5115811581122F28AC72
:102A600082AD83C005C004122F09D004D005D00662
:102A7000D0078E028F03C3EA9430EB940040478E58
:102A8000028F03C374339AE49B403B8C028D03C3D3
:102A9000EA9430EB9400402E8C028D03C374399A73
:102AA000E49B4022EE24D0FAEF34FFFBEC24D0F874
:102AB000ED34FFF9900403E8F0E9A3F08A828B83F8
:102AC00012214D0228D18E028F03C3EA9430EB9479
:102AD0000040478E028F03C374339AE49B403B8CC3
:102AE000028D03C3EA9441EB9400402E8C028D03C7
:102AF000C374469AE49B4022EE24D0FEEF34FFFFDD
:102B0000EC24C9FCED34FFFD900403ECF0EDA3F0E0
:102B10008E828F8312214D0228D174A8C0E0743DAB
:102B2000C0E0122F51158115810228D174DAC0E05E
:102B3000743DC0E0122F5115811581122F28AE82ED
:102B40008E057F00C006C005C007746DC0E0743BF1
:102B5000C0E0122F51E58124FCF581D0067F0110E1
:102B6000AF027F008E82C007122206D007EF1392B9
:102B7000AF0228D174FEC0E0743DC0E0122F5115A1
:102B80008115819004337401F0E4A3F07E007F008E
:102B9000900433E0F5F0A3E045F0604FC007C006B5
:102BA000122F28AC828C037D00C004C003C00574C2
:102BB0001FC0E0743EC0E0122F51E58124FCF58176
:102BC000D004D006D007BC0D09900433E4F0A3F084
:102BD00080BE8E02EFFB3395E0FD8A828B838DF001
:102BE000EC122F360EBE00A80F80A5EF3395E0FD46
:102BF0008E828F838DF0E4122F367F0110AF027F1B
:102C00000090000075F000C0071222B2D007EF1349
:102C100092AF0228D17F0110AF027F00C0071223BC
:102C200006D007EF1392AF0228D17F0110AF027FC9
:102C300000900477E4F0900478F0900479F0900428
:102C40007AF090047BF0758259C00712213090040D
:102C50007BE02430F58212220675825A12213090D0
:102C6000047AE02430F58212220675825B1221304C
:102C700075823A12220675825C122130900479E046
:102C80002430F58212220675825D1221309004787C
:102C9000E02430F58212220675825E1221307582A0
:102CA0002E12220675825F122130900477E02430C4
:102CB000F582122206D007EF1392AF0228D1538873
:102CC000EF0228D14388100228D17422C0E0743E5C
:102CD000C0E0122F5115811581122F28AE82AF83CB
:102CE000900435EEF0EFA3F08E828F83C007C0060C
:102CF000122F09122F28AC82AD83900437ECF0ED2F
:102D0000A3F08C828D83C005C004122F09D004D09B
:102D100005D006D0078E028F03C3EA9430EB9400EF
:102D2000403A8E028F03C374359AE49B402E8C0286
:102D30008D03C3EA9430EB940040218C028D03C3D1
:102D400074399AE49B4015EE24D0FEEC24D0FCEEBE
:102D5000C454F02CF5821221300228D1900435E0C1
:102D6000FEA3E0FFC3EE9430EF9400405C74359E08
:102D7000E49F4055900437E0FCA3E0FDC3EC944190
:102D8000ED9400404474469CE49D403DEE24D0FE0A
:102D9000EF34FFFF900435EEF0EFA3F0EC24C9FC14
:102DA000ED34FFFD900437ECF0EDA3F0900435E036
:102DB000FEA3E0EEC454F0FE900437E0FDA3E0ED86
:102DC0002EF5821221300228D1743AC0E0743EC040
:102DD000E0122F51158115810228D11223190228E2
:102DE000D1745FC0E0743EC0E0122F51158115818F
:102DF000122F28AE828E057F008D828F83C006122F
:102E00002F0990000A122F097473C0E0743EC0E0CD
:102E1000122F5115811581D0067D007F00C37407E4
:102E20009D74808FF063F08095F04072900420E0F4
:102E3000FAA3E0FBA3E0FC8A828B838CF0C007C07E
:102E400006C0051225DE900420E0FAA3E0FBA3E013
:102E5000FC8A828B838CF0122497AB82AC83D005E2
:102E6000D006D007C374809BE49C5015C0067486BE
:102E7000C0E0743EC0E0122F5115811581D006804C
:102E80001DED2DF9EF33FAE92423F582EA3404F538
:102E900083EBF0ECA3F00DBD00010F022E1D7D00B1
:102EA0007F00C374079D74808FF063F08095F040BD
:102EB0003DED2DFBEF33FCEB2423F582EC3404F5E0
:102EC00083E0FBA3E0FCC007C006C005C003C0044C
:102ED000749BC0E0743EC0E0122F51E58124FCF5E4
:102EE00081D005D006D0070DBD00B70F80B4900487
:102EF0000F7423F07404A3F0E4A3F08E821223C3B2
:092F00000228D11226870228D113
:103B18004D414E4441444920534149204348415274
:103B2800414E2055434220455344204C41422034C5
:103B38002000005072657373204820666F722074ED
:103B4800686520686F6D65206D656E750A0D0045A6
:103B58006E74657220612063686F6963653A20201E
:103B680020200A0D0025630A0D002A2A2A2A2A2A5B
:103B78002A2A2A2A2A2A2A486F6D65204D656E75D9
:103B88002A2A2A2A2A2A2A2A2A2A2A2A2A2A2A00B7
:103B98000A0D456E746572204A20746F20676F2085
:103BA800746F206465736972656420636F6F7264F3
:103BB800696E617465290A0D000A0D507265737388
:103BC800204320746F207072696E74206465736975
:103BD80072656420636861726163746572206F6ED8
:103BE800204C43440A0D000A0D507265737320532C
:103BF80020746F207072696E7420646573697265D1
:103C08006420737472696E67206F6E204C43440A97
:103C18000D000A0D5072657373204220746F206383
:103C28006C656172204C43440A0D000A0D507265A0
:103C38007373204520746F2073746F7020746865E7
:103C480020656C61707365642074696D6520636CB0
:103C58006F636B0A0D000A0D507265737320522052
:103C6800746F207265737461727420746865206360
:103C78006C6F636B0A0D000A0D5072657373205ADE
:103C880020746F2072657365742074686520636C96
:103C98006F636B206261636B20746F202730303A4A
:103CA80030302E30270A0D000A0D507265737320CC
:103CB8004720746F20676F20746F206120706172D5
:103CC800746963756C6172206164647265737320D2
:103CD8006C6F636174696F6E270A0D000A0D50726C
:103CE800657373204620746F204372656174652084
:103CF8006120637573746F6D2063686172616374AA
:103D08006572270A0D000A0D5072657373204420EE
:103D1800466F72204865782044756D70206F662064
:103D2800444452414D0A0D000A0D507265737320C8
:103D38004920466F72204865782044756D70206F61
:103D48006620434752414D0A0D000A0D2A2A2A2AA5
:103D58002A2A2A2A2A2A2A2A2A2A2A2A2A2A2A2ABB
:103D68002A2A2A2A2A2A2A2A2A2A2A2A2A2A2A2AAB
:103D78002A2A2A2A2A2A2A2A2A2A2A2A2A2A0A0DD8
:103D880000456E74657220726F773A200A0D0045FF
:103D98006E74657220636F6C756D6E3A200A0D0043
:103DA800456E74657220612076616C696420696E65
:103DB800707574207769746820726F7720302D339E
:103DC80020616E6420636F6C756D6E20302D460A1D
:103DD8000D00456E74657220636861726163746575
:103DE8007220746F207072696E74206F6E204C435D
:103DF800443A200A0D00456E746572207374726926
:103E08006E6720746F207072696E74206F6E204C1C
:103E180043443A200A0D00256300456E74657220FC
:103E2800676F20746F20616464726573733A200A47
:103E38000D00456E74657220612076616C6964209E
:103E4800616464726573732030302D31662F2034BD
:103E5800302D35380A0D00456E7465722063757310
:103E6800746F6D20636F64650A0D00456E7465722A
:103E780020526F772076616C7565730A0D00496E64
:103E880076616C696420526F772076616C75657312
:103E98000A0D00696E7075742076616C7565733DE6
:063EA8002025750A0D0043
:073EB9000000000000000002
:102F0900AF83E582900439F0EFA3F03099FD900486
:102F190039E0FEA3E0FF8E99C2998E828F83221039
:0D2F2900980280FBAE997F008E828F83227C
:06204000E478FFF6D8FD74
:10201E007907E94400601B7A01903EB9787575A086
:10202E0004E493F2A308B8000205A0D9F4DAF2751D
:02203E00A0FF01
:102F360020F71130F6138883A88220F509F6A883B6
:102F46007583002280FEF280F5F022C00C85810C8C
:102F5600E50C24FDF8868318868218E493A324DB07
:102F6600600C2425600512303F80F0023057D2D520
:102F7600E493A3C083C082B4731486F018868318C2
:102F8600868218123AEA6054A312303F80F5B46381
:102F96000818E61812303F8043B46417E630E74657
:102FA60018E6F42401F608E6F43400F6742D12301F
:102FB6003F8033B4782D868318868218E412303029
:102FC600E58312302FE583123030E58212302FE58B
:102FD6008212303030D505743012303FD082D08323
:102FE600022F61B475F6E6FA18E6F9187C107D270B
:102FF60012301AFF7CE87D0312301AC4F5837C6414
:103006007D0012301A4283E975F00A84C445F0F552
:1030160082EF80A97B000BC3E99CF9EA9DFA50F682
:103026001BE92CF9EA3DFAEB22C4540F700320D5B4
:103036001FC2D52490D43440D4C083C082C0F0F5DA
:1030460082E8C0E0122F09D0E0F8D0F0D082D08319
:1030560022D00C22AA83AB828BF090043CE0A4F829
:10306600A9F08AF0E0A429F98BF0A3E0A429F5835E
:043076008882222208
:102046007800E84400600A790075A004E4F309D832
:10205600FC7875E84400600C7901900400E4F0A374
:04206600D8FCD9FACF
:10307A00C00C85810C7E008E83122F09D00C22AFE2
:10308A00F0AE83E58290043FF0EEA3F0EFA3F09058
:10309A00043FE0FDA3E0FEA3E0FF90043EE0FC90C5
:1030AA000453E4F0A3F0A3F0900456EDF0EEA3F07D
:1030BA00EFA3F0900459ECF090307A0231D1C00CB1
:1030CA00E581F50C24FBFF900453E4F0A3F0A3F090
:1030DA00E50C24FBF8900456E6F008E6A3F008E6AF
:1030EA00A3F0900459EFF090307A1231D1D00C222B
:1030FA00E58290044FF0E0FF900445E0C0E0A3E0D1
:10310A00C0E0A3E0C0E0123115800D900443E0C096
:10311A00E0A3E0C0E08F8222158115811581900419
:10312A004DE02401F0A3E03400F022E5829004503F
:10313A00F0E02430FF24C6500D74072FFF9004429C
:10314A00E060034307208F820230FAE5829004513F
:10315A00F0E0FFC4540FF582C007123135D007538F
:10316A00070F8F82023135E582900452F0900448AD
:10317A00E0FCA3E0FDA3E0FEA3E0FF90044CE0FB2B
:10318A00751720900452E0F98B00E828F8EF2354D1
:10319A000148FBEC2CFCED33FDEE33FEEF33FFC3AD
:1031AA00EB994007EBC399FB430401E51714FA8A2C
:1031BA001770D5900448ECF0EDA3F0EEA3F0EFA35E
:1031CA00F090044CEBF022AF83E58290045AF0EFC2
:1031DA00A3F090045AE0FEA3E0FF900443EEF0EF60
:1031EA00A3F0900453E0FDA3E0FEA3E0FF900445A2
:1031FA00EDF0EEA3F0EFA3F090044DE4F0A3F0900D
:10320A000456E0FDA3E0FEA3E0FF8D828E838FF0DB
:10321A00123AEAFC90045674012DF0E43EA3F0EF52
:10322A00A3F0EC7003023AC6BC25028003023ABE40
:10323A0090045CE4F090045DF090045EF090045F0A
:10324A00F0900460F0900461F0900462F0900463DE
:10325A00F0900465F0900466F0A3F090046814F00E
:10326A00A3F0900456E0FDA3E0FEA3E0FF8D828E5A
:10327A00838FF0123AEAFBA3AD82AE83900456ED37
:10328A00F0EEA3F0EFA3F090046CEBF0BB25088BF3
:10329A00821230FA023209BB3000500302336AEB61
:1032AA0024C6500302336A900468E0F50DA3E0F5E2
:1032BA000E74FFB50D63B50E60C005C006C0079059
:1032CA000466E0FAA3E0FF90043CEAF0EFA3F09072
:1032DA00000AC005C00312305AAE82AF83D003D0B1
:1032EA00058B027D00EA2EFEED3FFFEE24D0FEEFB5
:1032FA0034FFFF900466EEF0EFA3F0D007D006D0BB
:10330A0005900466E0F5F0A3E045F0600302327729
:10331A0090045D7401F0023277C005C006C00790C0
:10332A00043CE50DF0E50EA3F090000AC006C005C6
:10333A00C00312305AAA82AF83D003D005D0067ECA
:10334A0000EB2AFAEE3FFFEA24D0FAEF34FFFF90AF
:10335A000468EAF0EFA3F0D007D006D0050232776E
:10336A0090046CE0FBBB2E2FC005C006C00790047A
:10337A0068E0FAA3E0FFBAFF05BFFF028009D007A1
:10338A00D006D005023277D007D006D0059004685F
:10339A00E4F0A3F0023277BB61004014EB248540CD
:1033AA000F90046C74DF5BF09004427401F08005A6
:1033BA00900442E4F090046CE0FBBB20028075BBF1
:1033CA002B028067BB2D028059BB4202806FBB4330
:1033DA0002807CBB4403023661BB4603023687BBCC
:1033EA004803023277BB4903023661BB4A03023201
:1033FA0077BB4C028050BB4F0302366FBB500302AF
:10340A0035CFBB53028077BB5403023277BB5503D7
:10341A00023677BB580302367FBB5A030232770261
:10342A00368F90045C7401F002327790045E740166
:10343A00F002327790045F7401F0023277900461EF
:10344A007401F00232779004627401F002327790CC
:10345A000461E0600E900459E014F9F090046CE7FE
:10346A00F0800F900459E024FEFFF08F0190046C65
:10347A00E7F090046CE0F5821230FA02369E90046E
:10348A0059E024FDFFF08F018705098706098707A0
:10349A001919900448EDF0EEA3F0EFA3F08D828E97
:1034AA00838FF0123AD285820D85830E900468E0EC
:1034BA00FAA3E0FDBAFF0DBDFF0A900468E50DF01E
:1034CA00E50EA3F090045CE0704B900466E0FAA36A
:1034DA00E0FDC3E50D9AE50E9D503A900466EAC3F5
:1034EA00950DF0ED950EA3F0900466E0FAA3E0FDC9
:1034FA008A068D071ABAFF011DEE4F6010758220E9
:10350A00C005C0021230FAD002D00580E3900466EA
:10351A00EAF0EDA3F0900468E0F510A3E0F511904D
:10352A000448E0FAA3E0FDA3E0FF8A828D838FF0CE
:10353A00123AEAF50F603CC3E4951074808511F0E5
:10354A0063F08095F0502C151074FFB51002151118
:10355A00850F821230FA900448E0FAA3E0FDA3E056
:10356A00FF0ABA00010D900448EAF0EDA3F0EFA3B8
:10357A00F080AC90045CE0700302369E900466E032
:10358A00FEA3E0FFC3E50D9EE50E9F400302369EB3
:10359A00900466EEC3950DF0EF950EA3F0900466C5
:1035AA00E0FEA3E0FF8E028F051EBEFF011FEA4D5B
:1035BA007003023696758220C007C0061230FAD010
:1035CA0006D00780E0900459E024FDFDF08D0187C4
:1035DA00120987130987141919900448E512F0E5AE
:1035EA0013A3F0E514A3F090044AE0FDBD80004067
:1035FA000890046C7443F08020BD60004008900479
:10360A006C7450F08013BD4000400890046C7449FB
:10361A00F0800690046C7458F090046CE0FDF5821A
:10362A00C0051230FA75823A1230FA7582301230B9
:10363A00FA7582781230FAD005BD4902800EBD5063
:10364A00028009900449E0F582123155900448E05D
:10365A00F582123155803D9004607401F090046542
:10366A00740AF0802F9004657408F080279004652E
:10367A00740AF0801F9004657410F0801790046338
:10368A007401F0800F8B821230FA8008900466EE83
:10369A00F0EFA3F0900463E06071900459E024FC19
:1036AA00FFF08F018703098705098706098707192C
:1036BA001919900448EBF0EDA3F0EEA3F0EFA3F094
:1036CA0090044874AEF0743EA3F07480A3F09004A2
:1036DA0048E0F512A3E0F513A3E0F51474012512EE
:1036EA00FAE43513FBAF14900448EAF0EBA3F0EFC9
:1036FA00A3F08512828513838514F0123AEAFF70CB
:10370A00030232098F821230FA80C3900465E07096
:10371A0003023209900461E06047900459E014F909
:10372A00F087077E007D007B00900448EFF0EEA34F
:10373A00F0EDA3F0EBA3F0900460E060030237E140
:10374A00900448E0FBA3E0A3E0A3E07D007E007FB5
:10375A0000900448EBF0EDA3F0EEA3F0EFA3F080A5
:10376A0076900462E06028900459E024FCFFF08F10
:10377A000187030987050987060987071919199017
:10378A000448EBF0EDA3F0EEA3F0EFA3F08048902D
:10379A000459E024FEFFF08F01870609870719EF15
:1037AA003395E0FDFB900448EEF0EFA3F0EDA3F0B3
:1037BA00EBA3F0900460E0701E900448E0FBA3E0E5
:1037CA00FDA3E0A3E07E007F00900448EBF0EDA3A8
:1037DA00F0EEA3F0EFA3F0900460E060419004489B
:1037EA00E0FBA3E0FDA3E0FEA3E0FF30E72B90049B
:1037FA0048E0FBA3E0FDA3E0FEA3E0FFC3E49BFBDC
:10380A00E49DFDE49EFEE49FFF900448EBF0EDA3E7
:10381A00F0EEA3F0EFA3F08005900460E4F09004CA
:10382A00647401F0900465E0F5107515727516045C
:10383A00E4F50DF50E90044CE4F085108212317116
:10384A00900464E0702690044CE0C4F51285158259
:10385A00851683E0FFE5124207851582851683EFF8
:10386A00F0151574FFB515021516800C90044CE07E
:10387A00FF851582851683F0050DE4B50D02050E48
:10388A00900464E0B40100E433F0900448E0FAA341
:10389A00E0FBA3E0FEA3E0FFEA4B4E4F70979004D3
:1038AA0073E515F0E516A3F090046AE50DF0E50E50
:1038BA00A3F0900466E0F5F0A3E045F070099004E7
:1038CA00667401F0E4A3F090045DE0FFE0704790B5
:1038DA00045CE07041850D15850E16900466E0FAC9
:1038EA00A3E0FBC007AF150F8F067F00C3EE9AEF68
:1038FA009BD0075019758220C007C003C00212303E
:10390A00FAD002D003D0071ABAFF011B80D590045F
:10391A0066EAF0EBA3F0900460E0602075822DC0A7
:10392A00071230FAD007900466E024FFFDA3E034C2
:10393A00FFFE900466EDF0EEA3F0805690046AE074
:10394A00F5F0A3E045F0604A90045EE060207582DD
:10395A002BC0071230FAD007900466E024FFFDA3BB
:10396A00E034FFFE900466EDF0EEA3F080249004AC
:10397A005FE0601E758220C0071230FAD0079004FB
:10398A0066E024FFFDA3E034FFFE900466EDF0EE4E
:10399A00A3F090045CE0704890046AE0F515A3E097
:1039AA00F516900466E0FAA3E0FBC0078A068B07C7
:1039BA001ABAFF011BC3E5159EE5169FD00750539F
:1039CA00EF60067D307E0080047D207E008D82C0FF
:1039DA0007C003C0021230FAD002D003D00780CA4F
:1039EA00900466E0FEA3E0FF90046AE0F515A3E008
:1039FA00F516C3E5159EE5169F500F900466EEC3B3
:103A0A009515F0EF9516A3F08011900466E4F0A3E3
:103A1A00F08008900466EAF0EBA3F0900473E0FEED
:103A2A00A3E0FF90046AE0F515A3E0F516AA15AD28
:103A3A0016151574FFB515021516EA4D6045900462
:103A4A0064E0B40100E433F0900464E070140EBE44
:103A5A0000010F8E828F83E0C4540FFD90044CF056
:103A6A00800E8E828F83E0FD53050F90044CEDF09B
:103A7A0090044CE0F582C007C006123135D006D05A
:103A8A000780AA90045CE07003023209900466E0A1
:103A9A00FEA3E0FF8E038F051EBEFF011FEB4D70D4
:103AAA0003023209758220C007C0061230FAD00616
:103ABA00D00780E08C821230FA02320990044DE07D
:083ACA00FEA3E08E82F58322C9
:0B3EAE003C4E4F20464C4F41543E005C
:103AD200AA82AB83123AEA6003A380F8C3E5829A12
:083AE200F582E5839BF58322C8
:0D201100758120122740E582600302200E39
:103AEA0020F71430F6148883A88220F507E6A88305
:0C3AFA0075830022E280F7E49322E022B2
:00000001FF
