:03200000022006B5
:03205F0002200359
:0320030002206256
:1020620074C6C0E07422C0E012219D158115810260
:02207200215BF0
:1022C600496E697469616C697A696E672053504911
:0322D6000A0D00EE
:102074009004007418F0900401E4F0900402741CBD
:10208400F0900403E4F0900404741EF090040574CA
:10209400E0F0900406F4F090040774F0F090040863
:1020A400741EF090040974E0F090040A741CF0901B
:1020B400040BE4F090040C7418F090040DE4F09018
:1020C400040E7414F090040FE4F09004107411F0F2
:1020D40090041114F0900412F0900413E4F09004AE
:1020E400147411F090041514F09004167414F09004
:1020F4000417E4F0900418E4F0A3F0900418E0FE50
:10210400A3E0FFC3EE9418EF6480948050E6C2B459
:10211400EE2400F582EF3404F583E0F5C5E5C43020
:10212400E7FB900418E0FEA3E0FF90041874012E6E
:10213400F0E43FA3F0EE2400F582EF3404F583E0ED
:10214400F5C5E5C430E7FBD2B4900418E02401F0EF
:10215400A3E03400F080A474D9C0E07422C0E0127B
:0C216400219D1581158175C37002207447
:1022D900657865637574696E67204441430A0D002A
:10217000AF83E58290041AF0EFA3F03099FD90044C
:102180001AE0FEA3E0FF8E99C2998E828F832210FF
:0D219000980280FBAE997F008E828F832223
:06203500E478FFF6D8FD7F
:102013007900E94400601B7A009022E9781C75A0DE
:1020230004E493F2A308B8000205A0D9F4DAF27528
:02203300A0FF0C
:10219D00C008858108E50824FDF886831886821815
:1021AD00E493A324DB600C2425600512228B80F0C0
:1021BD000222A3D2D5E493A3C083C082B473148644
:1021CD00F0188683188682181222A66054A3122254
:1021DD008B80F5B4630818E61812228B8043B46423
:1021ED0017E630E74618E6F42401F608E6F4340065
:1021FD00F6742D12228B8033B4782D868318868247
:10220D0018E412227CE58312227BE58312227CE501
:10221D008212227BE58212227C30D5057430122287
:10222D008BD082D0830221ADB475F6E6FA18E6F9AB
:10223D00187C107D27122266FF7CE87D0312226632
:10224D00C4F5837C647D001222664283E975F00A31
:10225D0084C445F0F582EF80A97B000BC3E99CF99E
:10226D00EA9DFA50F61BE92CF9EA3DFAEB22C4542B
:10227D000F700320D51FC2D52490D43440D4C08311
:10228D00C082C0F0F582E8C0E0122170D0E0F8D035
:09229D00F0D082D08322D0082287
:10203B007800E84400600A790075A004E4F309D83D
:10204B00FC781CE84400600C7901900400E4F0A3D8
:04205B00D8FCD9FADA
:0D2006007581081222C2E5826003022003EA
:1022A60020F71430F6148883A88220F507E6A88361
:1022B60075830022E280F7E49322E02275820022F1
:00000001FF
